S01900005068617365416E676C65436F6E74726F6C2E7372656352
S11300000C9434000C94D8000C943E000C943E00E4
S11300100C943E000C943E000C943E000C943E0064
S11300200C943E000C943E000C943E000C943E0054
S11300300C943E000C943E000C943E000C943E0044
S11300400C943E000C943E000C943E000C943E0034
S11300500C943E000C943E000C943E000C943E0024
S11300600C943E000C943E0011241FBECFEFD8E048
S1130070DEBFCDBF0E94C4000C948E030C9400001C
S113008080E480937C00EAE7F0E0808180648083F0
S1130090808184FFFDCFEAE7F0E080818061808386
S11300A02091780030917900822F932F08954F92F8
S11300B05F926F927F928F929F92AF92BF92CF92F4
S11300C0DF92EF92FF920F931F93DF93CF93CDB7FD
S11300D0DEB728970FB6F894DEBF0FBECDBF2A0156
S11300E03B0109831A832B833C83AA2797FDA095A0
S11300F0BA2FBC01CD010E947702A30192010E9494
S113010078016D837E838F839887C501B401A7012D
S113011096010E9478014B015C0169817A818B818F
S11301209C81A30192010E9478019B01AC01C5014D
S1130130B4010E94E1019B01AC016D817E818F813C
S113014098850E942B03A70196010E9479010E94C1
S113015049029B01AC01862F932F28960FB6F89481
S1130160DEBF0FBECDBFCF91DF911F910F91FF90E6
S1130170EF90DF90CF90BF90AF909F908F907F9043
S11301806F905F904F90089581E084B980E48093EC
S11301907C0087E880937A00E9E6F0E08081816062
S11301A08083EDE3F0E08081816080837894FFCFE9
S11301B01F920F920FB60F9211248F929F92AF92BB
S11301C0BF92CF92DF92EF92FF920F931F932F93E0
S11301D03F934F935F936F937F938F939F93AF93CB
S11301E0BF93EF93FF9380E00E94400040E050E013
S11301F060E070E000E010EC2FE734E46A017B017A
S11302000F2EF0E08F2EF0E09F2EFAE7AF2EF4E4ED
S1130210BF2EF02D0E945700E5E2F0E0208121601E
S11302202083AA2797FDA095BA2FBC01CD010E9477
S113023077025B016C0120E030E04AE753E40E945E
S11302402B037B018C0120E030E040E85FE30E9457
S1130250DD0188231CF461E070E023C0C801B7010C
S113026020E03FEF4FE757E40E9427031816ACF451
S1130270C601B50120E030E040E251E40E942B03C6
S11302800E944902CB01672B79F029E130E0F901A2
S11302903197F1F70197D9F707C0C801B7010E9458
S11302A04902CB010197F1F7E5E2F0E080818E7F0E
S11302B0808388EA91E60197F1F7FF91EF91BF916E
S11302C0AF919F918F917F916F915F914F913F91EA
S11302D02F911F910F91FF90EF90DF90CF90BF90DF
S11302E0AF909F908F900F900FBE0F901F90189516
S11302F05058BB27AA270ED070C161D130F066D107
S113030020F031F49F3F11F41EF456C10EF4E09531
S1130310E7FB4CC1E92F72D180F3BA176207730768
S11303208407950718F071F49EF58AC10EF4E095E0
S11303300B2EBA2FA02D0B01B90190010C01CA019B
S1130340A0011124FF27591B99F0593F50F4503E46
S113035068F11A16F040A22F232F342F4427585F38
S1130360F3CF469537952795A795F0405395C9F750
S11303707EF41F16BA0B620B730B840BBAF0915008
S1130380A1F0FF0FBB1F661F771F881FC2F70EC0A7
S1130390BA0F621F731F841F48F48795779567957A
S11303A0B795F7959E3F08F0B3CF9395880F08F063
S11303B09927EE0F979587950895D4D008F481E096
S11303C008950CD00AC102D140F0F9D030F021F4E4
S11303D05F3F19F0EBC0511134C1EEC00FD198F357
S11303E09923C9F35523B1F3951B550BBB27AA27B2
S11303F062177307840738F09F5F5F4F220F331F24
S1130400441FAA1FA9F333D00E2E3AF0E0E830D0EF
S113041091505040E695001CCAF729D0FE2F27D0F2
S1130420660F771F881FBB1F261737074807AB07C0
S1130430B0E809F0BB0B802DBF01FF2793585F4F35
S11304402AF09E3F510568F0B1C0FBC05F3FECF35A
S1130450983EDCF3869577956795B795F7959F5FFA
S1130460C9F7880F911D9695879597F90895E1E04E
S1130470660F771F881FBB1F621773078407BA07AD
S113048020F0621B730B840BBA0BEE1F88F7E09508
S11304900895BCD088F09F5790F0B92F9927B75191
S11304A0A0F0D1F0660F771F881F991F1AF0BA9534
S11304B0C9F712C0B13081F0C3D0B1E00895C0C013
S11304C0672F782F8827B85F39F0B93FCCF386952A
S11304D077956795B395D9F73EF490958095709587
S11304E061957F4F8F4F9F4F0895E89409C097FB04
S11304F03EF490958095709561957F4F8F4F9F4FF7
S11305009923A9F0F92F96E9BB279395F69587953A
S113051077956795B795F111F8CFFAF4BB0F11F4FD
S113052060FF1BC06F5F7F4F8F4F9F4F16C08823A4
S113053011F096E911C0772321F09EE8872F762FDA
S113054005C0662371F096E8862F70E060E02AF01B
S11305509A95660F771F881FDAF7880F9695879507
S113056097F90895990F0008550FAA0BE0E8FEEFDC
S113057016161706E807F907C0F012161306E40763
S1130580F50798F0621B730B840B950B39F40A265C
S113059061F0232B242B252B21F408950A2609F43A
S11305A0A140A6958FEF811D811D089597F99F673E
S11305B080E870E060E008959FEF80EC08950024E7
S11305C00A941616170618060906089500240A94B4
S11305D012161306140605060895092E0394000C3A
S11305E011F4882352F0BB0F40F4BF2B11F460FFC9
S11305F004C06F5F7F4F8F4F9F4F089557FD9058F2
S1130600440F551F59F05F3F71F04795880F97FBD2
S1130610991F61F09F3F79F087950895121613068C
S11306201406551FF2CF4695F1DF08C016161706BB
S11306301806991FF1CF86957105610508940895F0
S1130640E894BB2766277727CB0197F908958ADFBB
S113065008F48FEF08950BD0C0CFB1DF28F0B6DFD8
S113066018F0952309F0A2CFA7CF1124EACFC6DF53
S1130670A0F3959FD1F3950F50E0551F629FF001B1
S1130680729FBB27F00DB11D639FAA27F00DB11D0A
S1130690AA1F649F6627B00DA11D661F829F222793
S11306A0B00DA11D621F739FB00DA11D621F839F1A
S11306B0A00D611D221F749F3327A00D611D231FF0
S11306C0849F600D211D822F762F6A2F11249F573E
S11306D050408AF0E1F088234AF0EE0FFF1FBB1F61
S11306E0661F771F881F91505040A9F79E3F510500
S11306F070F05CCFA6CF5F3FECF3983EDCF38695B9
S113070077956795B795F795E7959F5FC1F7FE2BAA
S1130710880F911D9695879597F90895F894FFCFC2
S9030000FC
